{
  "_format": "hh-sol-artifact-1",
  "contractName": "Contract",
  "sourceName": "contracts/CrowdFunding.sol",
  "abi": [
    {
      "inputs": [
        {
          "internalType": "uint256",
          "name": "",
          "type": "uint256"
        }
      ],
      "name": "campaigns",
      "outputs": [
        {
          "internalType": "address",
          "name": "owner",
          "type": "address"
        },
        {
          "internalType": "string",
          "name": "title",
          "type": "string"
        },
        {
          "internalType": "string",
          "name": "description",
          "type": "string"
        },
        {
          "internalType": "uint256",
          "name": "target",
          "type": "uint256"
        },
        {
          "internalType": "uint256",
          "name": "deadline",
          "type": "uint256"
        },
        {
          "internalType": "uint256",
          "name": "amountCollected",
          "type": "uint256"
        },
        {
          "internalType": "string",
          "name": "image",
          "type": "string"
        }
      ],
      "stateMutability": "view",
      "type": "function"
    },
    {
      "inputs": [
        {
          "internalType": "address",
          "name": "_owner",
          "type": "address"
        },
        {
          "internalType": "string",
          "name": "_title",
          "type": "string"
        },
        {
          "internalType": "string",
          "name": "_description",
          "type": "string"
        },
        {
          "internalType": "uint256",
          "name": "_target",
          "type": "uint256"
        },
        {
          "internalType": "uint256",
          "name": "_deadline",
          "type": "uint256"
        },
        {
          "internalType": "string",
          "name": "_iamge",
          "type": "string"
        }
      ],
      "name": "createCampaign",
      "outputs": [
        {
          "internalType": "uint256",
          "name": "",
          "type": "uint256"
        }
      ],
      "stateMutability": "nonpayable",
      "type": "function"
    },
    {
      "inputs": [
        {
          "internalType": "uint256",
          "name": "_id",
          "type": "uint256"
        }
      ],
      "name": "donateCampaign",
      "outputs": [],
      "stateMutability": "payable",
      "type": "function"
    },
    {
      "inputs": [],
      "name": "getCampaigns",
      "outputs": [
        {
          "components": [
            {
              "internalType": "address",
              "name": "owner",
              "type": "address"
            },
            {
              "internalType": "string",
              "name": "title",
              "type": "string"
            },
            {
              "internalType": "string",
              "name": "description",
              "type": "string"
            },
            {
              "internalType": "uint256",
              "name": "target",
              "type": "uint256"
            },
            {
              "internalType": "uint256",
              "name": "deadline",
              "type": "uint256"
            },
            {
              "internalType": "uint256",
              "name": "amountCollected",
              "type": "uint256"
            },
            {
              "internalType": "string",
              "name": "image",
              "type": "string"
            },
            {
              "internalType": "address[]",
              "name": "donators",
              "type": "address[]"
            },
            {
              "internalType": "uint256[]",
              "name": "donations",
              "type": "uint256[]"
            }
          ],
          "internalType": "struct Contract.Campaign[]",
          "name": "",
          "type": "tuple[]"
        }
      ],
      "stateMutability": "view",
      "type": "function"
    },
    {
      "inputs": [
        {
          "internalType": "uint256",
          "name": "_id",
          "type": "uint256"
        }
      ],
      "name": "getDonaters",
      "outputs": [
        {
          "internalType": "address[]",
          "name": "",
          "type": "address[]"
        },
        {
          "internalType": "uint256[]",
          "name": "",
          "type": "uint256[]"
        }
      ],
      "stateMutability": "view",
      "type": "function"
    },
    {
      "inputs": [],
      "name": "numberOfcampaigns",
      "outputs": [
        {
          "internalType": "uint256",
          "name": "",
          "type": "uint256"
        }
      ],
      "stateMutability": "view",
      "type": "function"
    }
  ],
  "bytecode": "0x6080604052600060015534801561001557600080fd5b50611792806100256000396000f3fe6080604052600436106100555760003560e01c8063141961bc1461005a57806327e40d2a1461009d5780638ffff8b0146100db5780639943e3a1146100f7578063a6b0363314610134578063d8f1f08a1461015f575b600080fd5b34801561006657600080fd5b50610081600480360381019061007c9190610c5b565b61018a565b6040516100949796959493929190610d71565b60405180910390f35b3480156100a957600080fd5b506100c460048036038101906100bf9190610c5b565b610384565b6040516100d2929190610f71565b60405180910390f35b6100f560048036038101906100f09190610c5b565b610494565b005b34801561010357600080fd5b5061011e60048036038101906101199190611109565b6105f4565b60405161012b91906111ea565b60405180910390f35b34801561014057600080fd5b50610149610730565b60405161015691906114d0565b60405180910390f35b34801561016b57600080fd5b50610174610b06565b60405161018191906111ea565b60405180910390f35b60006020528060005260406000206000915090508060000160009054906101000a900473ffffffffffffffffffffffffffffffffffffffff16908060010180546101d390611521565b80601f01602080910402602001604051908101604052809291908181526020018280546101ff90611521565b801561024c5780601f106102215761010080835404028352916020019161024c565b820191906000526020600020905b81548152906001019060200180831161022f57829003601f168201915b50505050509080600201805461026190611521565b80601f016020809104026020016040519081016040528092919081815260200182805461028d90611521565b80156102da5780601f106102af576101008083540402835291602001916102da565b820191906000526020600020905b8154815290600101906020018083116102bd57829003601f168201915b50505050509080600301549080600401549080600501549080600601805461030190611521565b80601f016020809104026020016040519081016040528092919081815260200182805461032d90611521565b801561037a5780601f1061034f5761010080835404028352916020019161037a565b820191906000526020600020905b81548152906001019060200180831161035d57829003601f168201915b5050505050905087565b6060806000808481526020019081526020016000206007016000808581526020019081526020016000206008018180548060200260200160405190810160405280929190818152602001828054801561043257602002820191906000526020600020905b8160009054906101000a900473ffffffffffffffffffffffffffffffffffffffff1673ffffffffffffffffffffffffffffffffffffffff16815260200190600101908083116103e8575b505050505091508080548060200260200160405190810160405280929190818152602001828054801561048457602002820191906000526020600020905b815481526020019060010190808311610470575b5050505050905091509150915091565b60003490506000806000848152602001908152602001600020905080600701339080600181540180825580915050600190039060005260206000200160009091909190916101000a81548173ffffffffffffffffffffffffffffffffffffffff021916908373ffffffffffffffffffffffffffffffffffffffff1602179055508060080182908060018154018082558091505060019003906000526020600020016000909190919091505560008160000160009054906101000a900473ffffffffffffffffffffffffffffffffffffffff1673ffffffffffffffffffffffffffffffffffffffff168360405161058990611584565b60006040518083038185875af1925050503d80600081146105c6576040519150601f19603f3d011682016040523d82523d6000602084013e6105cb565b606091505b5050905080156105ee578282600501546105e591906115c8565b82600501819055505b50505050565b6000806000806001548152602001908152602001600020905042816004015410610653576040517f08c379a000000000000000000000000000000000000000000000000000000000815260040161064a90611690565b60405180910390fd5b878160000160006101000a81548173ffffffffffffffffffffffffffffffffffffffff021916908373ffffffffffffffffffffffffffffffffffffffff160217905550868160010190805190602001906106ae929190610b0c565b50858160020190805190602001906106c7929190610b0c565b50848160030181905550838160040181905550828160060190805190602001906106f2929190610b0c565b506000816005018190555060016000815480929190610710906116b0565b91905055506001805461072391906116f9565b9150509695505050505050565b6060600060015467ffffffffffffffff8111156107505761074f610fde565b5b60405190808252806020026020018201604052801561078957816020015b610776610b92565b81526020019060019003908161076e5790505b50905060005b600154811015610afe576000806000838152602001908152602001600020905080604051806101200160405290816000820160009054906101000a900473ffffffffffffffffffffffffffffffffffffffff1673ffffffffffffffffffffffffffffffffffffffff1673ffffffffffffffffffffffffffffffffffffffff16815260200160018201805461082290611521565b80601f016020809104026020016040519081016040528092919081815260200182805461084e90611521565b801561089b5780601f106108705761010080835404028352916020019161089b565b820191906000526020600020905b81548152906001019060200180831161087e57829003601f168201915b505050505081526020016002820180546108b490611521565b80601f01602080910402602001604051908101604052809291908181526020018280546108e090611521565b801561092d5780601f106109025761010080835404028352916020019161092d565b820191906000526020600020905b81548152906001019060200180831161091057829003601f168201915b5050505050815260200160038201548152602001600482015481526020016005820154815260200160068201805461096490611521565b80601f016020809104026020016040519081016040528092919081815260200182805461099090611521565b80156109dd5780601f106109b2576101008083540402835291602001916109dd565b820191906000526020600020905b8154815290600101906020018083116109c057829003601f168201915b5050505050815260200160078201805480602002602001604051908101604052809291908181526020018280548015610a6b57602002820191906000526020600020905b8160009054906101000a900473ffffffffffffffffffffffffffffffffffffffff1673ffffffffffffffffffffffffffffffffffffffff1681526020019060010190808311610a21575b5050505050815260200160088201805480602002602001604051908101604052809291908181526020018280548015610ac357602002820191906000526020600020905b815481526020019060010190808311610aaf575b505050505081525050838381518110610adf57610ade61172d565b5b6020026020010181905250508080610af6906116b0565b91505061078f565b508091505090565b60015481565b828054610b1890611521565b90600052602060002090601f016020900481019282610b3a5760008555610b81565b82601f10610b5357805160ff1916838001178555610b81565b82800160010185558215610b81579182015b82811115610b80578251825591602001919060010190610b65565b5b509050610b8e9190610bf4565b5090565b604051806101200160405280600073ffffffffffffffffffffffffffffffffffffffff16815260200160608152602001606081526020016000815260200160008152602001600081526020016060815260200160608152602001606081525090565b5b80821115610c0d576000816000905550600101610bf5565b5090565b6000604051905090565b600080fd5b600080fd5b6000819050919050565b610c3881610c25565b8114610c4357600080fd5b50565b600081359050610c5581610c2f565b92915050565b600060208284031215610c7157610c70610c1b565b5b6000610c7f84828501610c46565b91505092915050565b600073ffffffffffffffffffffffffffffffffffffffff82169050919050565b6000610cb382610c88565b9050919050565b610cc381610ca8565b82525050565b600081519050919050565b600082825260208201905092915050565b60005b83811015610d03578082015181840152602081019050610ce8565b83811115610d12576000848401525b50505050565b6000601f19601f8301169050919050565b6000610d3482610cc9565b610d3e8185610cd4565b9350610d4e818560208601610ce5565b610d5781610d18565b840191505092915050565b610d6b81610c25565b82525050565b600060e082019050610d86600083018a610cba565b8181036020830152610d988189610d29565b90508181036040830152610dac8188610d29565b9050610dbb6060830187610d62565b610dc86080830186610d62565b610dd560a0830185610d62565b81810360c0830152610de78184610d29565b905098975050505050505050565b600081519050919050565b600082825260208201905092915050565b6000819050602082019050919050565b610e2a81610ca8565b82525050565b6000610e3c8383610e21565b60208301905092915050565b6000602082019050919050565b6000610e6082610df5565b610e6a8185610e00565b9350610e7583610e11565b8060005b83811015610ea6578151610e8d8882610e30565b9750610e9883610e48565b925050600181019050610e79565b5085935050505092915050565b600081519050919050565b600082825260208201905092915050565b6000819050602082019050919050565b610ee881610c25565b82525050565b6000610efa8383610edf565b60208301905092915050565b6000602082019050919050565b6000610f1e82610eb3565b610f288185610ebe565b9350610f3383610ecf565b8060005b83811015610f64578151610f4b8882610eee565b9750610f5683610f06565b925050600181019050610f37565b5085935050505092915050565b60006040820190508181036000830152610f8b8185610e55565b90508181036020830152610f9f8184610f13565b90509392505050565b610fb181610ca8565b8114610fbc57600080fd5b50565b600081359050610fce81610fa8565b92915050565b600080fd5b600080fd5b7f4e487b7100000000000000000000000000000000000000000000000000000000600052604160045260246000fd5b61101682610d18565b810181811067ffffffffffffffff8211171561103557611034610fde565b5b80604052505050565b6000611048610c11565b9050611054828261100d565b919050565b600067ffffffffffffffff82111561107457611073610fde565b5b61107d82610d18565b9050602081019050919050565b82818337600083830152505050565b60006110ac6110a784611059565b61103e565b9050828152602081018484840111156110c8576110c7610fd9565b5b6110d384828561108a565b509392505050565b600082601f8301126110f0576110ef610fd4565b5b8135611100848260208601611099565b91505092915050565b60008060008060008060c0878903121561112657611125610c1b565b5b600061113489828a01610fbf565b965050602087013567ffffffffffffffff81111561115557611154610c20565b5b61116189828a016110db565b955050604087013567ffffffffffffffff81111561118257611181610c20565b5b61118e89828a016110db565b945050606061119f89828a01610c46565b93505060806111b089828a01610c46565b92505060a087013567ffffffffffffffff8111156111d1576111d0610c20565b5b6111dd89828a016110db565b9150509295509295509295565b60006020820190506111ff6000830184610d62565b92915050565b600081519050919050565b600082825260208201905092915050565b6000819050602082019050919050565b600082825260208201905092915050565b600061124d82610cc9565b6112578185611231565b9350611267818560208601610ce5565b61127081610d18565b840191505092915050565b600082825260208201905092915050565b600061129782610df5565b6112a1818561127b565b93506112ac83610e11565b8060005b838110156112dd5781516112c48882610e30565b97506112cf83610e48565b9250506001810190506112b0565b5085935050505092915050565b600082825260208201905092915050565b600061130682610eb3565b61131081856112ea565b935061131b83610ecf565b8060005b8381101561134c5781516113338882610eee565b975061133e83610f06565b92505060018101905061131f565b5085935050505092915050565b6000610120830160008301516113726000860182610e21565b506020830151848203602086015261138a8282611242565b915050604083015184820360408601526113a48282611242565b91505060608301516113b96060860182610edf565b5060808301516113cc6080860182610edf565b5060a08301516113df60a0860182610edf565b5060c083015184820360c08601526113f78282611242565b91505060e083015184820360e0860152611411828261128c565b91505061010083015184820361010086015261142d82826112fb565b9150508091505092915050565b60006114468383611359565b905092915050565b6000602082019050919050565b600061146682611205565b6114708185611210565b93508360208202850161148285611221565b8060005b858110156114be578484038952815161149f858261143a565b94506114aa8361144e565b925060208a01995050600181019050611486565b50829750879550505050505092915050565b600060208201905081810360008301526114ea818461145b565b905092915050565b7f4e487b7100000000000000000000000000000000000000000000000000000000600052602260045260246000fd5b6000600282049050600182168061153957607f821691505b6020821081141561154d5761154c6114f2565b5b50919050565b600081905092915050565b50565b600061156e600083611553565b91506115798261155e565b600082019050919050565b600061158f82611561565b9150819050919050565b7f4e487b7100000000000000000000000000000000000000000000000000000000600052601160045260246000fd5b60006115d382610c25565b91506115de83610c25565b9250827fffffffffffffffffffffffffffffffffffffffffffffffffffffffffffffffff0382111561161357611612611599565b5b828201905092915050565b7f54686520646561646c696e652073686f756c642062652061206461746520696e60008201527f20746865206675747572652e0000000000000000000000000000000000000000602082015250565b600061167a602c83610cd4565b91506116858261161e565b604082019050919050565b600060208201905081810360008301526116a98161166d565b9050919050565b60006116bb82610c25565b91507fffffffffffffffffffffffffffffffffffffffffffffffffffffffffffffffff8214156116ee576116ed611599565b5b600182019050919050565b600061170482610c25565b915061170f83610c25565b92508282101561172257611721611599565b5b828203905092915050565b7f4e487b7100000000000000000000000000000000000000000000000000000000600052603260045260246000fdfea264697066735822122045d42b4a7652bd666d11b58b5dc22785e6d310b37ac0bd0f0dd53a9b960b566d64736f6c63430008090033",
  "linkReferences": {},
  "deployedLinkReferences": {}
}