{
  "_format": "hh-sol-artifact-1",
  "contractName": "Wallet",
  "sourceName": "contracts/Transfer.sol",
  "abi": [
    {
      "inputs": [],
      "stateMutability": "nonpayable",
      "type": "constructor"
    },
    {
      "inputs": [],
      "name": "deposit",
      "outputs": [],
      "stateMutability": "payable",
      "type": "function"
    },
    {
      "inputs": [],
      "name": "getBalance",
      "outputs": [
        {
          "internalType": "uint256",
          "name": "",
          "type": "uint256"
        }
      ],
      "stateMutability": "view",
      "type": "function"
    },
    {
      "inputs": [],
      "name": "owner",
      "outputs": [
        {
          "internalType": "address",
          "name": "",
          "type": "address"
        }
      ],
      "stateMutability": "view",
      "type": "function"
    },
    {
      "inputs": [
        {
          "internalType": "address payable",
          "name": "_to",
          "type": "address"
        },
        {
          "internalType": "uint256",
          "name": "_amount",
          "type": "uint256"
        }
      ],
      "name": "transfer",
      "outputs": [],
      "stateMutability": "payable",
      "type": "function"
    }
  ],
  "bytecode": "0x608060405234801561001057600080fd5b50336000806101000a81548173ffffffffffffffffffffffffffffffffffffffff021916908373ffffffffffffffffffffffffffffffffffffffff16021790555061048e806100606000396000f3fe60806040526004361061003f5760003560e01c806312065fe0146100445780638da5cb5b1461006f578063a9059cbb1461009a578063d0e30db0146100b6575b600080fd5b34801561005057600080fd5b506100596100c0565b6040516100669190610223565b60405180910390f35b34801561007b57600080fd5b506100846100c8565b604051610091919061027f565b60405180910390f35b6100b460048036038101906100af9190610309565b6100ec565b005b6100be610208565b005b600047905090565b60008054906101000a900473ffffffffffffffffffffffffffffffffffffffff1681565b60008054906101000a900473ffffffffffffffffffffffffffffffffffffffff1673ffffffffffffffffffffffffffffffffffffffff163373ffffffffffffffffffffffffffffffffffffffff161461017a576040517f08c379a0000000000000000000000000000000000000000000000000000000008152600401610171906103cc565b60405180910390fd5b804710156101bd576040517f08c379a00000000000000000000000000000000000000000000000000000000081526004016101b490610438565b60405180910390fd5b8173ffffffffffffffffffffffffffffffffffffffff166108fc829081150290604051600060405180830381858888f19350505050158015610203573d6000803e3d6000fd5b505050565b565b6000819050919050565b61021d8161020a565b82525050565b60006020820190506102386000830184610214565b92915050565b600073ffffffffffffffffffffffffffffffffffffffff82169050919050565b60006102698261023e565b9050919050565b6102798161025e565b82525050565b60006020820190506102946000830184610270565b92915050565b600080fd5b60006102aa8261023e565b9050919050565b6102ba8161029f565b81146102c557600080fd5b50565b6000813590506102d7816102b1565b92915050565b6102e68161020a565b81146102f157600080fd5b50565b600081359050610303816102dd565b92915050565b600080604083850312156103205761031f61029a565b5b600061032e858286016102c8565b925050602061033f858286016102f4565b9150509250929050565b600082825260208201905092915050565b7f4f6e6c7920746865206f776e65722063616e207472616e736665722066756e6460008201527f7300000000000000000000000000000000000000000000000000000000000000602082015250565b60006103b6602183610349565b91506103c18261035a565b604082019050919050565b600060208201905081810360008301526103e5816103a9565b9050919050565b7f496e73756666696369656e742062616c616e6365000000000000000000000000600082015250565b6000610422601483610349565b915061042d826103ec565b602082019050919050565b6000602082019050818103600083015261045181610415565b905091905056fea26469706673582212207485ffe111b1f91da1c299ab40148bc7fc5f05a57ec007710ce569fa5c34cd0f64736f6c63430008090033",
  "linkReferences": {},
  "deployedLinkReferences": {}
}